:020000040800F2
:1000000000000220110A00080D0A0008BD6B00085C
:100010000D0A00080D0A00080D0A00080000000083
:100020000000000000000000000000000D0A0008B1
:100030000D0A0008000000000D0A0008416B0008CE
:100040000D0A00080D0A00080D0A00080D0A000834
:100050000D0A00080D0A00080D0A00080D0A000824
:100060000D0A00080D0A00080D0A0008695800086A
:1000700075580008C1470008815800088D580008CD
:1000800075680008954D00080D0A00080D0A000863
:100090000D0A00080D0A00080D0A00080D0A0008E4
:1000A0000D0A00080D0A00080D0A00080D0A0008D4
:1000B0000D0A00080D0A00080D0A0008C94D0008C5
:1000C0000D0A0008D54D00080D0A0008112301088B
:1000D0000D0A0008656200080D630008B963000896
:1000E0000D0A00080D0A0008000000000D0A0008B3
:1000F0000D0A00080D0A00080D0A00081D2301085A
:100100000D0A00080D0A00080D0A00080D0A000873
:1001100065640008116500080D0A00080D0A000852
:100120000D0A00080D0A00080D0A00080D0A000853
:100130000D0A00080D0A00080D0A00080D0A000843
:1001400000000000000000000000000000000000AF
:100150000D0A00080D0A00080D0A0008BD65000818
:10016000E14D00080D0A0008516B0008756B00088E
:100170000D0A0008996B00080D0A00080D0A000816
:100180000D0A00080D0A00086966000815670008D6
:100190000D0A00080D0A00080D0A00080D0A0008E3
:1001A0000D0A00080D0A00080D0A00080D0A0008D3
:1001B000895500080D0A00080D0A00080D0A0008FC
:1001C0000D0A00080D0A0008E1420008ED4200088F
:1001D0000D0A0008F94200080D0A00080D0A00087F
:1001E0000D0A00080D0A00080D0A00080D0A000893
:1001F0000D0A00080D0A00080D0A00080D0A000883
:100200000D0A00080D0A00080D0A00080D0A000872
:100210000D0A00080D0A00080D0A00080D0A000862
:100220000D0A00080D0A00080D0A00080000000071
:100230000D0A00080D0A0008000000000D0A000861
:100240000D0A00080D0A00080D0A00080D0A000832
:100250000D0A00080D0A00080D0A00080D0A000822
:100260000D0A00080D0A00080D0A00080D0A000812
:100270000D0A00080D0A0008C16700080000000010
:100280000D0A00080D0A00080D0A00080000000011
:08029000000000000D0A000847
:1002A00010B5054C237833B9044B13B10448AFF3B0
:1002B00000800123237010BDF00400240000000022
:1002C000D06D010808B5034B1BB103490348AFF3D8
:1002D000008008BD00000000F4040024D06D010877
:1002E000034613F8012B002AFBD1181A0138704776
:1002F00001F0FF01102A2BDB10F0070F08D010F8D7
:10030000013B013A8B422DD010F0070F42B3F6D1DA
:10031000F0B441EA012141EA014122F007047FF0F3
:1003200000070023F0E80256083C85EA010586EA4A
:10033000010685FA47F5A3FA87F586FA47F6A5FA86
:1003400087F68EB9EED1F0BC01F0FF0102F0070292
:1003500032B110F8013B013A83EA010313B1F8D13D
:100360000020704701387047002D06BF354603381E
:10037000073815F0010F07D1013015F4807F02BF57
:10038000013015F4C03F0130F0BC0138704700BFA8
:1003900081F0004102E000BF83F0004330B54FEA36
:1003A00041044FEA430594EA050F08BF90EA020FA3
:1003B0001FBF54EA000C55EA020C7FEA645C7FEA36
:1003C000655C00F0E2804FEA5454D4EB5555B8BF59
:1003D0006D420CDD2C4480EA020281EA030382EACA
:1003E000000083EA010180EA020281EA0303362D5C
:1003F00088BF30BD11F0004F4FEA01314FF4801C2F
:100400004CEA113102D0404261EB410113F0004F40
:100410004FEA03334CEA133302D0524263EB4303F7
:1004200094EA050F00F0A780A4F10104D5F1200E95
:100430000DDB02FA0EFC22FA05F2801841F10001F0
:1004400003FA0EF2801843FA05F359410EE0A5F1C4
:1004500020050EF1200E012A03FA0EFC28BF4CF0F5
:10046000020C43FA05F3C01851EBE37101F00045AB
:1004700007D54FF0000EDCF1000C7EEB00006EEBB8
:100480000101B1F5801F1BD3B1F5001F0CD3490842
:100490005FEA30004FEA3C0C04F101044FEA445299
:1004A00012F5800F80F09A80BCF1004F08BF5FEA20
:1004B000500C50F1000041EB045141EA050130BD00
:1004C0005FEA4C0C404141EB0101013C28BFB1F512
:1004D000801FE9D291F0000F04BF01460020B1FA5D
:1004E00081F308BF2033A3F10B03B3F120020CDA30
:1004F0000C3208DD02F1140CC2F10C0201FA0CF00E
:1005000021FA02F10CE002F11402D8BFC2F1200C72
:1005100001FA02F120FA0CFCDCBF41EA0C01904028
:10052000E41AA2BF01EB0451294330BD6FEA040471
:100530001F3C1CDA0C340EDC04F11404C4F120025C
:1005400020FA04F001FA02F340EA030021FA04F36E
:1005500045EA030130BDC4F10C04C4F1200220FAC5
:1005600002F001FA04F340EA0300294630BD21FA03
:1005700004F0294630BD94F0000F83F4801306BFC9
:1005800081F480110134013D4EE77FEA645C18BFBD
:100590007FEA655C29D094EA050F08BF90EA020F54
:1005A00005D054EA000C04BF1946104630BD91EA4C
:1005B000030F1EBF0021002030BD5FEA545C05D14F
:1005C0004000494128BF41F0004130BD14F580048E
:1005D0003CBF01F5801130BD01F0004545F0FE4102
:1005E00041F470014FF0000030BD7FEA645C1ABF37
:1005F000194610467FEA655C1CBF0B46024650EA6E
:10060000013406BF52EA033591EA030F41F4002199
:1006100030BD00BF90F0000F04BF0021704730B51F
:100620004FF4806404F132044FF000054FF00001F4
:1006300050E700BF90F0000F04BF0021704730B5B5
:100640004FF4806404F1320410F0004548BF40428A
:100650004FF000013EE700BF42004FEAE2014FEADF
:1006600031014FEA02701FBF12F07F4393F07F4FBA
:1006700081F06051704732F07F4208BF704793F0BD
:100680007F4F04BF41F40021704730B54FF46074D0
:1006900001F0004521F000411CE700BF50EA0102D3
:1006A00008BF704730B54FF000050AE050EA01027C
:1006B00008BF704730B511F0004502D5404261EBEC
:1006C00041014FF4806404F132045FEA915C3FF42D
:1006D000D8AE4FF003025FEADC0C18BF03325FEACA
:1006E000DC0C18BF033202EBDC02C2F1200300FA7B
:1006F00003FC20FA02F001FA03FE40EA0E0021FAA0
:1007000002F11444BDE600BF53B94AB9002908BF3D
:1007100000281CBF4FF0FF314FF0FF3000F074B9DC
:10072000ADF1080C6DE904CE00F006F8DDF804E048
:10073000DDE9022304B070472DE9F047089D044627
:100740008E46002B4DD18A42944669D9B2FA82F284
:1007500052B101FA02F3C2F1200120FA01F10CFAC0
:1007600002FC41EA030E94404FEA1C48210CBEFBF8
:10077000F8F61FFA8CF708FB16E341EA034306FB81
:1007800007F199420AD91CEB030306F1FF3080F010
:100790001F81994240F21C81023E63445B1AA4B25D
:1007A000B3FBF8F008FB103344EA034400FB07F7FF
:1007B000A7420AD91CEB040400F1FF3380F00A8140
:1007C000A74240F207816444023840EA0640E41B35
:1007D00000261DB1D4400023C5E900433146BDE8E1
:1007E000F0878B4209D9002D00F0EF800026C5E983
:1007F000000130463146BDE8F087B3FA83F6002E9B
:100800004AD18B4202D3824200F2F980841A61EB12
:10081000030301209E46002DE0D0C5E9004EDDE730
:1008200002B9FFDEB2FA82F2002A40F09280A1EB18
:100830000C014FEA1C471FFA8CFE0126200CB1FB6D
:10084000F7F307FB131140EA01410EFB03F0884266
:1008500008D91CEB010103F1FF3802D2884200F2F3
:10086000CB804346091AA4B2B1FBF7F007FB101185
:1008700044EA01440EFB00FEA64508D91CEB040423
:1008800000F1FF3102D2A64500F2BB800846A4EB7E
:100890000E0440EA03409CE7C6F12007B34022FA69
:1008A00007FC4CEA030C20FA07F401FA06F31C4398
:1008B000F9404FEA1C4900FA06F3B1FBF9F8200CA5
:1008C0001FFA8CFE09FB181140EA014108FB0EF0EB
:1008D000884202FA06F20BD91CEB010108F1FF3A3B
:1008E00080F08880884240F28580A8F10208614447
:1008F000091AA4B2B1FBF9F009FB101144EA014155
:1009000000FB0EFE8E4508D91CEB010100F1FF34FF
:100910006CD28E456AD90238614440EA0840A0FB97
:100920000294A1EB0E01A142C846A64656D353D06D
:100930005DB1B3EB080261EB0E0101FA07F722FA91
:1009400006F3F1401F43C5E9007100263146BDE8BA
:10095000F087C2F12003D8400CFA02FC21FA03F31D
:10096000914001434FEA1C471FFA8CFEB3FBF7F09E
:1009700007FB10360B0C43EA064300FB0EF69E42C3
:1009800004FA02F408D91CEB030300F1FF382FD25C
:100990009E422DD9023863449B1B89B2B3FBF7F604
:1009A00007FB163341EA034106FB0EF38B4208D9DD
:1009B0001CEB010106F1FF3816D28B4214D9023E1E
:1009C0006144C91A46EA004638E72E46284605E73C
:1009D0000646E3E61846F8E64B45A9D2B9EB02080D
:1009E00064EB0C0E0138A3E74646EAE7204694E79D
:1009F0004046D1E7D0467BE7023B614432E73046D0
:100A000009E76444023842E7704700BFFEE700BFD1
:100A10000B480C4A904203D0121A0B4914F008FA02
:100A20000A480B4A904203D0121A002114F00EFA21
:100A300006F076FA14F0D0F901F050FCFEE700BFA2
:100A400000000024F0040024FC6D0108F0040024E0
:100A500078280124704700BF704700BF704700BF6F
:100A6000704700BF704700BF704700BFDA4BB7EE5A
:100A7000006ADA4AD3ED007AD94BDA49D2ED006A3E
:100A8000D3ED003AD84AD94BD1ED005AD848D949CC
:100A900036EE655AD3ED004A65EEA65AD64B36EED1
:100AA000676A66EEA76A90ED004A70B4D34C0D7881
:100AB00003F5B16126781478D14A1078002E00F041
:100AC000AF8093ED387A24EE077A65EE877AE5EE0B
:100AD000077A0DB167EEA37A9FEDCA3AB7EE007AB6
:100AE000F4EEC37A83ED2E7AF1EE10FA6FD5F2EEC2
:100AF000041A0022B6EE003AB1EE042AC3F8C82068
:100B0000B5EE007AC3F8CC20A7EEA13AC3F8D02006
:100B1000F1EE0E2AC3F8D420A7EE827A67EEA27A0D
:100B200083ED2F3AC3ED317A83ED307A002C4BD030
:100B300093ED387A24EE877A66EE877AE6EE077AC6
:100B400008B167EEA37AB6EE007AF4EEC77AF1EE5A
:100B500010FA24D5D3ED2F2A93ED313A93ED337A61
:100B600067EEA22A93ED352A27EE833A27EE877A9D
:100B700067EE827A72EEA22A33EE033A37EE077AF4
:100B800077EEA77AC3ED2F2A83ED313A83ED337ADE
:100B9000C3ED357AEC33994290D170BC7047B7EE13
:100BA000007A93ED303A77EE677A27EE837A37EE64
:100BB000077A67EE877A83ED307A77EEA77AC3ED0E
:100BC000327AC3ED347AE5E7B0EE647AB4E7DFED6C
:100BD0008E2AF4EEE27AF1EE10FA24D577EEC37A9B
:100BE000DFED8A1A9FED8A2A002283ED2F7A27EE05
:100BF000823ADFED882A27EEA17AC3ED301A67EE3C
:100C0000A27A83ED312A23EE223AC3F8C82027EED8
:100C1000227AC3ED357A83ED333A83ED347A85E772
:100C2000B0EE447A51E79FED7C3AF4EEC37AF1EEF0
:100C300010FA2AD577EEE27A9FED743ADFED742A46
:100C4000F0EE430A9FED732A67EEA21A83ED2F7A26
:100C500027EE830AB0EE621A67EE827AE1EE820A2C
:100C6000A0EE021AE1EE822AC3ED327AA1EEC23A78
:100C700037EE677AC3ED300A83ED357A83ED311AAA
:100C8000C3ED332A83ED343A50E7F6EE002AF4EE52
:100C9000E27AF1EE10FA20D577EEC37ADFED5B2A27
:100CA0009FED5B3A9FED5D2A27EE831A83ED2F7A45
:100CB00067EEA21A83ED307A67EE827A83ED317A9D
:100CC000E1EE022A83ED327AA1EE823AC3ED357A63
:100CD000C3ED332A83ED343A28E7B6EE083AF4EE52
:100CE000C37AF1EE10FA32D4DFED4D2AF4EEE27A57
:100CF000F1EE10FA50D577EEC37ADFED442A9FED7E
:100D0000443A0022B0EE621A9FED462A67EE831A3B
:100D1000C3F8BC2022EEE70AF0EE430A67EE827ABF
:100D2000A0EE021AE1EEC20AE1EEC22AC3ED357A64
:100D3000A1EE823A37EE677A83ED311A83ED327A8B
:100D4000C3ED300AC3ED332A83ED343AEEE677EE95
:100D5000E27A9FED2E2AB1EE003ADFED2D2AF0EE79
:100D6000471A83ED327A22EE672A62EEE72AE7EE2F
:100D7000C31AF0EE477AA2EE837AE2EE037AC3ED6D
:100D80002F1AC3ED351A83ED317A83ED337AC3ED33
:100D9000307AC3ED347AC9E677EEE27A9FED1C3AF9
:100DA000DFED1A2A002283ED357A63EE677A9FED34
:100DB0001E2AB0EE627AC3F8BC20C3F8C020A7EEAA
:100DC000823AC3F8C420A7EE827AC3F8C82083ED24
:100DD000333A83ED347AA9E670B8002454B800247D
:100DE00084B8002468B800242FB8002444B8002434
:100DF00040B800248AB80024A0C800242EB80024DB
:100E00008BB80024CDCC4C3DCDCC4C3EFA7E2A3F55
:100E1000FA7EAA3E5655D5403333B33E5555D5409C
:100E20006666663F5855D540FEFF1F412DE9F04FDD
:100E3000564D00230446A5F1300705F5B1662DEDAA
:100E4000048B83B0036095F8B9102846EC3512F096
:100E5000C7FDAE4205ED0F0AF5D14D4B4D4819784F
:100E600012F0BEFD4C48B0EE408A13F0FFF8B7EE2A
:100E7000007A4A4BF6EE007A494EDFF84C8130EEAC
:100E8000070A484D60EE277AC3ED007AFFF7EEFDC2
:100E900097F8E91007F1300012F0A2FDD6ED007AC4
:100EA000F0EE408A97ED360A07F1600020EE270A3F
:100EB000019087ED1A0A13F0BBFA019887ED200A1A
:100EC00013F0D4F8F7EE007A97ED2F7A97ED306AA9
:100ED00077EE277AD7ED314A97ED325AD7ED335A6C
:100EE00077EE867A97ED346A9FED2F4ADFED2F6A11
:100EF00077EEA47AE0EE046A97ED350A77EE857A0C
:100F000077EEA57AFDEEE66A77EE867A16EE909A8F
:100F100077EE807AF5EE407AF1EE10FA00F1D281A8
:100F2000B1EEE70A1D4B3A46D5ED004A07F1C00C79
:100F300093ED005A4FEA49001D4B0121DFED1D7A68
:100F4000F7EE003A93ED004A30EE000A1A4B64EED9
:100F5000A74A93ED003A83EE802A184BD3ED002A7E
:100F600008EB8903D3ED006A73EEC43A144B25EE07
:100F7000044A64EE854A93F800A0124B93F800E00F
:100F80002346544677469A46964623E0D0C8002426
:100F900024B80024F4B700245005002454B80024D9
:100FA00098B8002448B80024000000440080FF43A3
:100FB00060B8002400C07F443CB8002484B80024FA
:100FC0002DB8002489B80024A0B80024ABAA2A3F79
:100FD000BCEC017A07EE901AF7EE005A1FED056A95
:100FE000C0F30902F8EEE77A77EEA57A67EEA47A05
:100FF00067EE867AFDEEE77A17EE903AD3F1000BB2
:10100000C3F30903CBF3090B58BFCBF10003002B4B
:10101000B8BFC3F58063D0F1000B4844CBF3090B94
:1010200058BFCBF1000213445A42C3F30903C2F381
:10103000090258BF534208EB8303D3ED007A67EEF1
:10104000877A63EE277A0CB167EEA87A24EE277AC6
:10105000A3EEA77A0FB127EE227A11F0010F01F16A
:10106000010108BFB1EE477A082976EE876AAFD151
:10107000984B22EE260A984A77461B78544692ED02
:10108000006A13B1DEF8E0301360944BB7EE007ADB
:10109000D3ED006A924B65EE267A37EE667A1B78BE
:1010A00067EE867AE6EE077A0BB167EEA27AB3EEC8
:1010B000007A97F89030F0EE006AC7ED267A07F1D3
:1010C0009000E7EEC76A07EE103AB8EEC77A67EE0F
:1010D000277AFCEEE77AB8EE677AC7ED277A77EEE3
:1010E000267AC7ED2D7A12F0E1FCF0EE408A97F8EF
:1010F000E910384612F074FCD4ED007A28EE800A2C
:101100009FED787AEC37784BE0EE077ABB42C4ED7E
:10111000007A7FF4BDAE754EF0EEE77A744AB7EE12
:10112000006A3368F8EE085A724F01339FED725A25
:1011300097ED007AB3F5806F704DA8BF002302EBE6
:101140008302336005EB8303D2ED006AC2ED007ABF
:1011500037EE667A6A4AF0EE466A93ED009A77EEC9
:10116000277A92ED007AE7EE056AC7ED007AD4EDB2
:10117000007A66EEA76AF4EEE56AF1EE10FA00F185
:101180009E80F0EE087AF4EEE76AF1EE10FA7EDD6A
:101190005C4BF7EE008A84ED006AD3ED006A5A4B8F
:1011A00066EE887A9FED596AD3ED005A78EEE66ACA
:1011B0009FED577A67EEA57ADFF874815548D8F825
:1011C0000030E6EEA57A436067EEA76A66EEA77A7E
:1011D000F0EE466A27EE888AE8EE076AC0ED026AFA
:1011E00094ED000A12F0CCFC98ED007A336837EEEB
:1011F000287A05EB8305484B27EE000A84ED000AA8
:10120000F0EEC07A93ED007A37EE497AC5ED007AB8
:1012100077EE277AF5EEC07AC3ED007AF1EE10FA98
:1012200006DD97ED007AF4EEC77AF1EE10FA3DDCB8
:10123000D4ED006A394BB7EE007A394AD3ED007A23
:1012400092ED006A374B66EE277A37EE467A1B78C6
:1012500067EEA67AE7EE267AC4ED007A33B1324B18
:1012600093ED007A67EE877AC4ED007A2F4BF0EEAB
:10127000E77A93ED007AB4EEE77AF1EE10FA48BF20
:10128000C3ED007A03B0BDEC048BBDE8F08F26EE11
:10129000A66AF3EE0B7AF2EE025A36EE277AE6EE03
:1012A000257A67EE266A86EEA76A71E7C7EE276A97
:1012B000D4ED007A66EEA76AC4ED006ABAE7BFEE25
:1012C000006A65E7B0EE670A13F05EFC97ED2F7ACF
:1012D00028E600BF2CB80024F0B7002458B800243A
:1012E00088B80024CDCCCC3E28CE0024E49700243E
:1012F000E8A70024ECB700240000C842E8970024C7
:1013000028B8002434B800240C000024000048430E
:1013100000A08C460C050024E8B7002454B8002433
:1013200078B800248CB8002484B8002480B8002445
:1013300038B8002484B02DE9F04FADF5097D88461A
:1013400092AC84E80F009DF848329DF850429DF819
:101350005162062B00F29D80DFE813F06E0107005A
:101360009B00C6009B009B00A1000122CB4BDFF835
:101370005C930021CA4800251A7012F083FAC94F05
:101380004FF0FF3ED9F800C03946F246624660464B
:1013900091F8E830A3421FD091F8E9301BB991F8D9
:1013A0005C30042B18D1D1F8E430834206DA91F88E
:1013B0005CB0BBF1040F01D1AA461846934201F17B
:1013C000EC0101DA1A46AE460135062DE0D1BAF13C
:1013D000FF3F14BF5546754607EE904A9FEDB27A1F
:1013E000F2EE080A0CF10103F8EE677AB0EE000A9B
:1013F000C9F8003077EEC77AC7EEA00A13F000F9FB
:1014000007EE906A9FEDA97AEC23D9F8002003FB40
:1014100005750123F8EEE76ADFEDA57A85F8E93076
:1014200020EE270A97F8E900C6EE877AC5F8E4208F
:1014300085F8E84085ED360AC5ED377A08B197F8AA
:10144000E80097F8D51109B197F8D41197F8C1328F
:101450000BB197F8C03297F8AD230AB197F8AC23D7
:1014600097F899540DB197F8985497F885C5BCF141
:10147000000F40F00781674602918E49CDE90332A3
:10148000CDE900602346424608A8CDE9055713F090
:10149000D9FD0DF5097DBDE8F04F04B07047A4F506
:1014A000005100962346424601EBC61608A8824921
:1014B00036B2019613F0C6FD002E07EE906AC0F218
:1014C000E480F8EEE77A9FED7D6AF7EE006A87EE3A
:1014D000867A37EE267A7A4B83ED007A0DF5097D10
:1014E000BDE8F04F04B070472346013C0A4608A807
:1014F0007449009613F0A6FD4C2CCAD801A353F8EA
:1015000024F000BF81190008931400089314000808
:10151000931400089314000893140008931400080F
:1015200093140008931400089314000893140008FF
:1015300093140008931400089314000893140008EF
:1015400099190008511900085D1900086919000867
:1015500075190008F1180008FD180008091900089D
:1015600015190008211900082D190008391900085B
:101570004519000875170008811700088D17000825
:10158000931400089314000893140008E717000848
:10159000931400089314000893140008931400088F
:1015A00093140008FF170008931400089314000810
:1015B000171800082F180008931400089314000847
:1015C000931400089314000893140008931400085F
:1015D00055180008611800086D18000879180008EF
:1015E0008518000893140008931400089314000849
:1015F000931400089314000891180008A918000813
:10160000931400089314000893140008931400081E
:10161000931400089314000893140008931400080E
:10162000931400089314000893140008C1180008CC
:10163000D9180008D11600080A462346224908A8EE
:10164000009613F0FFFC174A002102F5B16007E095
:1016500092F8E930EC32002B18BF1946824209D0CB
:1016600092F8E830A342F3D10023EC3202F8033CB5
:101670008242F5D1094B19700DF5097DBDE8F04F97
:1016800004B0704797F88475F6E6FAEEE97AF6EE5C
:10169000006AB7EE007AA7EEA67A1CE724B8002409
:1016A000F4B70024A0C8002400008A420000FE42D3
:1016B0000000DC43286201089C62010800F8FF4535
:1016C00098B80024846201086462010804000024C0
:1016D000B44B1B7853B107EE906A9FEDB37AB34BCE
:1016E000F8EE676AC6EE877AC3ED007AB04B1B78D6
:1016F00053B107EE906A9FEDAC7AAE4BF8EE676A95
:10170000C6EE877AC3ED007AAB4B1B789BB107EE30
:10171000906ADFEDA56AA94BB8EE676ADFEDA87A9B
:1017200086EE267AB4EEE77AF1EE10FAD4BF83EDB6
:10173000007AC3ED007AA34B1B7853B107EE906A91
:101740009FED997AA04BF8EE676AC6EE877AC3EDF3
:10175000007A9E4B1B78002B3FF49BAE07EE906AFD
:101760009FED917A9A4BF8EE676AC6EE877AC3EDE1
:10177000007A8EE6003E974B18BF01261E7088E661
:10178000003E954B18BF01261E7082E60023934A47
:101790009348944903700B70934C94488E4982F897
:1017A000E93082F8D53182F8C13282F8AD3382F85F
:1017B000993482F885358E4A237003700B7013704C
:1017C0008C4C8D488D49834A237003700B701370C5
:1017D0008B4D8C4C8C488D498D4A2B702370037037
:1017E0000B70137055E607EE906A9FED6F7A894B88
:1017F000F8EE676AC6EE877AC3ED007A49E607EE2F
:10180000906A9FED697A844BF8EE676AC6EE877A34
:10181000C3ED007A3DE607EE906A9FED637A7F4B59
:10182000F8EE676AC6EE877AC3ED007A31E61F2EBE
:1018300000F2008107EE906AF6EE086A9FED787A72
:10184000F8EE677A774B67EEA67A67EE877AC3ED94
:10185000007A1EE6003E5D4B18BF01261E7018E69A
:10186000003E584B18BF01261E7012E6003E504B3A
:1018700018BF01261E700CE6003E4F4B18BF012614
:101880001E7006E6003E474B18BF01261E7000E69C
:1018900007EE906A9FED447A634BF8EE676AC6EEF6
:1018A000877AC3ED007AF4E507EE906A9FED3E7A01
:1018B0005D4BF8EE676AC6EE877AC3ED017AE8E51C
:1018C00007EE906A9FED387A574BF8EE676AC6EEDE
:1018D000877AC3ED027ADCE507EE906A9FED327AF3
:1018E000514BF8EE676AC6EE877AC3ED037AD0E50E
:1018F000003E454B18BF01261E70CAE5003E434B13
:1019000018BF01261E70C4E5003E414B18BF0126DA
:101910001E70BEE5003E364B18BF01261E70B8E5AE
:10192000003E344B18BF01261E70B2E5003E324B1C
:1019300018BF01261E70ACE5003E304B18BF0126D3
:101940001E70A6E5003E264B18BF01261E70A0E5BE
:10195000003E2B4B18BF01261E709AE5003E214B1E
:1019600018BF01261E7094E5003E204B18BF0126CB
:101970001E708EE5003E234B18BF01261E7088E5C1
:1019800007EE906A9FED087A284BF8EE676AC6EE7C
:10199000877AC3ED007A7CE5003E134B18BF012621
:1019A0001E7076E5CC9700240000FE4228B8002483
:1019B000CE9700240C000024CF97002438B80024D0
:1019C000CDCC4C3FD097002448B80024CD970024BC
:1019D00034B800248CB800247CB80024A0C80024AB
:1019E00030B800242EB800242DB800242CB80024D0
:1019F00064B8002474B800246CB800245CB80024D7
:101A00002FB8002489B800248BB800248AB8002499
:101A100088B800243CB8002444B8002440B800240E
:101A20000000003DF0B70024D497002484B80024BF
:101A30000000BE42A6F120031FED036AF6EE086A1D
:101A400007EE103A044BBAEECF7AC7EE067A77EE7D
:101A5000A67AC3ED007A1CE5F0B7002438B51F481C
:101A60001F4C02F07BFA1F4884ED000A02F076FA60
:101A7000F7EE007A94ED006ADFED1B6AB2EE047AAD
:101A80001A4CE6EE267A1A4D84ED000A284687EEB7
:101A9000870A85ED020A12F0CBFC164B85ED080A89
:101AA0001B7813B1144B22681A60144B1B7813B1C6
:101AB000134B22681A60134B1B7813B1124B226828
:101AC0001A60124B1B7813B1114B22681A60114B2C
:101AD0001B7813B1104B22681A6038BDD80500245A
:101AE0004CB80024F80500240000C64250B8002479
:101AF000500500247CB8002478B8002464B8002481
:101B000060B8002474B8002470B800246CB80024B5
:101B100068B800245CB8002458B8002408B51E4BEF
:101B2000DFED1E0AD3ED007AF4EEE07AF1EE10FA62
:101B300024D4B7EE000AF4EEC07AF1EE10FA0BD41A
:101B40009FED171A1748F0EE410A02F0C1FA164845
:101B5000BDE8084000F0CABE77EEE07A9FED137A48
:101B600010489FED0F1AC7EE870AB0EE600A02F028
:101B7000AFFA0D48BDE8084000F0B8BE9FED081A66
:101B8000C7EEA00A0748B0EE410A02F0A1FA0648E3
:101B9000BDE8084000F0AABE80B80024CDCC4C3F80
:101BA000000000004006002480050024CDCC4C3EFF
:101BB00070B5834CADF6780D94F8A5307F2B32D0FC
:101BC00094F8B1307F2B02D00DF6780D70BD7D4BAF
:101BD00000229FED7D1A7D49F0EE410A83F8E9204D
:101BE000B0EE410A83F8D52183F8C12283F8AD23F2
:101BF00083F8992483F88525754881ED001A8DEDC9
:101C00001D1A02F065FA9DED1D1A7248F0EE410AA8
:101C1000B0EE410A02F05CFA69480DF6780DBDE8B5
:101C2000704000F063BE6C4B684A6C4892ED003A1D
:101C3000D3ED033A93ED024AD3ED014A93ED005AF6
:101C4000D0ED005A6649674A674B684891ED006AD3
:101C5000D2ED006A4FF47A7293ED007A0078644D09
:101C6000644B02FB00F064492D781B78097802FB75
:101C700005F5119002FB03F3604802FB01F1DFED73
:101C8000607A1295109323EE273A037863EEA73A11
:101C90000F9124EE274A5B4864EEA74A5A4925EE85
:101CA000275A007865EEA75A097826EE276A66EE6D
:101CB000A76A02FB00F027EE277A02FB01F1BDEED6
:101CC000C33A524EFDEEE33A514DBDEEC44A02FB1B
:101CD00003F3FDEEE44A8DED1B3ABDEEC55ACDEDA2
:101CE0001A3AFDEEE55A8DED194ABDEEC66ACDED04
:101CF000184AFDEEE66A8DED175ABDEEC77ACDEDB6
:101D0000165A8DED156ACDED146A8DED137A96EDA8
:101D1000007ACDE90D103F4867EE277A2D783E49CD
:101D2000007802FB05F50978FDEEE77A02FB00F08A
:101D300002FB01F1059039480C950B913849007868
:101D4000097802FB00F0374D02FB01F104903648A0
:101D50000A9136490078097802FB00F002FB01F194
:101D600003903348099133490078097802FB00F069
:101D700002FB01F10290304808913049007809785F
:101D800002FB00F002FB01F101902D480791297838
:101D9000007802FB01F102FB00F017EE902A00919F
:101DA00006901EA8274913F04DF91EA8FEF798FAD1
:101DB0001EA9024604F1240002F088FA00E700BFE1
:101DC00080050024A0C800240000000080B8002482
:101DD0004006002494060024D4970024F0B7002481
:101DE00040B8002444B800243CB80024CF97002415
:101DF000CC970024CE970024D09700242DB800243F
:101E000000007A44080000247CB8002484B8002430
:101E10008CB800248AB8002430B800248BB8002481
:101E20005CB800242FB8002489B800246CB80024C2
:101E30002CB8002474B800242EB8002464B8002400
:101E400088B80024B86201082DE9F041604D614C6A
:101E5000614E05F5B167DFF888812DED028B82B008
:101E600052E094ED000A2846DFED5C0A20EE080AF5
:101E700011F010FD3378002B00F08380F1EE047A2E
:101E800094ED010A284620EE270A11F059FD337817
:101E9000002B7ED1F7EE007AB1EE048A94ED030AAE
:101EA0002846C5ED007A20EE080A11F071FD94ED88
:101EB000000ADFED4A0A20EE080A494811F0EAFC60
:101EC00094ED010A464820EE080A11F039FDD4EDE0
:101ED000027AF5EEC07AF1EE10FA64D9B7EE007A24
:101EE000F4EE477AF1EE10FA77FE277AB1EE047A33
:101EF00094ED030AEC353A48C8ED007A20EE070A63
:101F000011F046FDBD425DD0B1EE048A94ED000AA9
:101F100005F13000DFED310A20EE080A019011F0E2
:101F2000B9FC94ED010A019820EE080A11F008FDB1
:101F3000D4ED027A0198F5EEC07AF1EE10FA35D9B7
:101F4000B7EE007AF4EE477AF1EE10FA77FE277AD0
:101F5000B1EE048A94ED030AC5ED0C7A20EE080A6E
:101F600011F016FD3378002B7FF47BAF9FED1D0A37
:101F70002846DFED1A0A11F08DFC3378002B7FF430
:101F80007DAF9FED160A284611F0DAFC3378002B5E
:101F900080D0D4ED027AF5EEC07AF1EE10FA08D8CE
:101FA000DFED117A78E7DFED107A9FE7DFED0E7A4B
:101FB000CEE7B7EE007AF4EE477AF1EE10FA77FE4C
:101FC000277A69E702B0BDEC028BBDE8F08100BF63
:101FD000A0C80024D497002430B8002400000000DA
:101FE000F4B700246F12833A0AD723BC70B51248A5
:101FF00082B016460C4600F05DFC0F4800F066FC0F
:10200000FFF72CFDFFF78AFDFFF7D2FDFFF71CFF5E
:102010007EB1013E0025760801A80834FEF706FFD0
:10202000019AAE4205F1010544F8082C44F8042C4D
:10203000F2D102B070BD00BF8005002403792DE904
:10204000F0410446C8B0032B0CD8DFE803F06A1D4A
:10205000020E00F5104595F8B4300B4000F0958065
:102060000023237148B0BDE8F081F72900F0BF805C
:1020700090F9922090F89230002AF3DBC2180133D5
:10208000917480F89230EDE700F5104595F8B43082
:102090001942E5D195F8B68001EA080880F8108069
:1020A00095F8A4703B1F012B06D990F8933003F0EC
:1020B000FD03012B40F0C58000236E46902204F101
:1020C00008013046237112F0B3FED5F89830D5F8E8
:1020D0009C20013B9B1ADBB2002BF6D090223146AC
:1020E0000DEB020012F0A4FED5F89C6024A990220A
:1020F00006EBC600013604EB0010F6B2983012F081
:1021000097FEC5F89C60B8F1770FABD9032FA9D122
:102110000923A8F17801237285F8A43084F895107A
:10212000A0E700F5104595F8B430194221D095F894
:10213000B8300B40C36095F8B5300B401B09092B34
:1021400003728FD80122072B027185F8A43089D140
:102150000023C36011F0080040F0A48001F00703E1
:1021600084F89330002B73D1032284F892302271CB
:1021700078E795F8A4300222037295F8B630027120
:102180001940017448B0BDE8F08195F8B6201140BF
:10219000417495F8A420012A01D1002954D06E463B
:1021A000902204F10801304612F042FED5F8983032
:1021B000D5F89C20013B9B1ADBB2002BF6D0902275
:1021C00031460DEB020012F033FED5F89C6024A9D5
:1021D000902206EBC600013604EB0010F6B29830F0
:1021E00012F026FE0023C5F89C6023713AE7002315
:1021F0006E4600F1080100F510450371902230464B
:1022000012F016FED5F89830D5F89C20013B9B1AA9
:10221000DBB2002BF6D0902231460DEB020012F01B
:1022200007FED5F89C6024A9902206EBC600013673
:1022300004EB0010F6B2983012F0FAFDC5F89C607D
:1022400010E7022303715EE785F8A4300372A6E766
:102250004B077FF507AF6E462071902204F108010D
:10226000304612F0E5FDD5F89830D5F89C20013BBA
:102270009B1ADBB2002BF6D0902231460DEB020008
:1022800012F0D6FDD5F89C6024A9902206EBC6007A
:1022900004EB0010983012F0CBFD731CDBB2C5F8D4
:1022A0009C30DFE608226E462272304685F8A42074
:1022B00095F8BA2023711140902284F8941004F10B
:1022C000080112F0B5FDD5F89830D5F89C20013BF7
:1022D0009B1ADBB2002BF6D0CEE700BFDFEDC77A4A
:1022E0004FF07E53C64A4FF07C51B0EE670A2DE99D
:1022F000F041C44F0024C44D2DED048BC2ED007A93
:10230000C6B0C24A05F58056BB603A607A60FA6092
:10231000BF4AC2ED007ABF4AC2ED007ABE4AC2EDA2
:10232000007ABE4A1470BE4A1470BE4A1470BE4A87
:102330001470BE4A1470BE4AC2ED007ABD4A1360E2
:10234000BD4A1160BD4ABE491160BE4AC2ED007A65
:10235000BD4A136007E000EE104ABAEECB0A20EE49
:10236000270A12F0E1FAA5EC010AB542DFEDB77ACF
:1023700004F10104EFD10021B54800F065FB08210C
:10238000B34800F07BFAB24800F08EFAB14C00215D
:10239000B148F0EE408A01F013FFFA2004F5B1666F
:1023A00004F010FC85E0F4EE487AF1EE10FA78FEC5
:1023B000277AA4F1600544ED247A97ED030A11F021
:1023C000E7FA0121B0EE680A284611F0EBF9DFEDDB
:1023D0008B0A97ED000A284611F05CFA97ED010A86
:1023E000284611F0ADFAD7ED027AB7EE007AF5EE95
:1023F000C07AF1EE10FA40F28780F4EE477AF1EEFF
:1024000010FA77FE277AB7EE008A44ED187A28464C
:1024100097ED030A11F0BCFA9FED789AC8EE289A5E
:102420004FF07C538D4AA4F130009FED8D0A0125B9
:1024300044F8202C44F82C3C44F8243C44ED078A12
:1024400004ED0A0A04ED059A219044ED069A11F074
:10245000EFFFF0EE407A032394ED120A04F8035CD8
:1024600044ED047A04F8045C04F8303C04ED0A0AF4
:10247000219811F0DDFF204604ED040A04ED0B8ADB
:10248000EC3411F005FBB44204F8CC5C04ED3A9A4C
:1024900004ED318A04ED308A04ED2F8A04ED2E8A92
:1024A00004ED2D8A04ED2C8A04ED2B8A04ED2A8A92
:1024B0002DD0B7EE008A6B4A0023A4F190000121D1
:1024C000A26484F85930B0EE680A84ED138A84ED72
:1024D000148A219011F066F9DFED480A97ED000AA1
:1024E000219811F0D7F9219897ED010A11F028FAF7
:1024F000D7ED027A2198F5EEC07AF1EE10FA3FF6A8
:1025000052AFDFED597A54E7DFED577A7BE7294682
:10251000B0EE680A554811F045F9F0EE490A97ED1A
:10252000000A524811F0B6F997ED010A4F4811F030
:1025300007FAD7ED027AF4EEC97AF1EE10FA40F21A
:10254000EA80F4EE487AF1EE10FA78FE277A4748EE
:102550000026474CB7EE008A97ED030A4FF00108BA
:10256000C0ED007A11F014FA3C4A4FF07C539FED15
:102570003C0A204622616360E360E661C4ED058A9F
:10258000C4ED069A84ED020A11F052FF40F20113E5
:10259000F0EE407A374F2046A385B0EE480A364D1C
:1025A000C4ED087A84F8008084ED028A11F040FFBF
:1025B000384684ED080A84ED018A11F069FA2F4C3F
:1025C000B0EE680A28467E6087F8208011F0BCFAD9
:1025D000A4F510402A4B6E6022AE0746AB6000F0B7
:1025E00065F92849384600F047F904F5067004F00B
:1025F000C9F904F0E5FA05464EE000BF000000000E
:1026000094B80024D4970024A0B800246F12833A11
:1026100090B8002450B800244CB8002430B80024EE
:102620002DB800242FB800242EB800242CB8002484
:102630009CB800243CB8002444B8002440B80024CE
:102640009A99993EF0B7002498B80024DB0FC9404E
:102650008005002430C90024A4050024DB0F494074
:102660000000C8420000C8420AD723BCF4B70024C7
:1026700050050024A49700240C0500248095002414
:1026800000401C46ED1F0008C4F8085204F09AF9F7
:1026900001462248FFF7D2FC214804F0A7F903467F
:1026A0001F48002BF0D11E4804F080F9034648B3C0
:1026B000D4F80432D4F800229B1ADBB2002B98D055
:1026C000D4F80432D4F800229B1ADBB2002BF7D0E6
:1026D000D4F800529022304605EBC501013507EBD6
:1026E0000111EDB201F5007112F0A2FB26A98022C2
:1026F0006846C4F8005212F09BFB96E80F00FEF704
:1027000019FED5E787F86C31054804F053F9044801
:1027100004F038F9CCE7DFED037A18E7E806002487
:10272000989700240AD723BC4348444A00F5104335
:10273000B2F800C09188424A10B50024A3F81612DE
:102740004FF60F01A3F814C2C3F81042A3F82012E9
:1027500004603C4944610462C0F86841C3E98642B0
:10276000072283F82222384A11F06EFE364A374992
:10277000374811F069FE344A3649374811F064FE93
:1027800010233648304A3649037011F05DFE354853
:10279000002335498485036043608160C360016123
:1027A00041618161C36103624362274A2F4911F08D
:1027B0004BFE2F4B03F5B16400222B4900204FF054
:1027C000100C1A60EC3343F8E82C43F8E41C43F88F
:1027D000E02C43F8DC1C43F8D81C43F8D41C43F825
:1027E000D02C43F8CC2C43F8C82C03F8C00C03F8C9
:1027F000BF0C43F8BC2C43F8B82C43F8B41C43F886
:10280000B02C43F8AC1C43F8A81C43F8A41C43F8B4
:10281000A02C43F89C2C43F8982C03F8900C03F858
:102820008F0C03F85CCCA342C6D1074A1149BDE81E
:10283000104011F009BE00BF80050024E4610108CA
:1028400080707FF0650A000800000024590A000823
:1028500050050024610A00080C050024A4970024F8
:102860005D0A0008F4B70024000080BF550A000884
:10287000A0C80024690A000800F08AB938B50446E7
:1028800000F08EF9D4F89850204600F0A5F92846BB
:1028900001F088FBD4F89C50204600F09DF92846B2
:1028A000BDE8384001F07EBB00F076B9183001F089
:1028B0001BBF00BF10B50446583001F04FFB04F1B8
:1028C0007800BDE8104001F049BB00BF10B50446D8
:1028D0003C3001F0A5FB04F1A00001F04BFC04F139
:1028E000AC00BDE8104001F045BC00BF10B5044687
:1028F000C03001F01DFC04F58A70BDE8104001F005
:1029000017BC00BFF0B504468DB01420012500F0BF
:1029100029F90346132004F1C007ADF80C3000F08C
:1029200021F90346122004F58A7406AEADF8103082
:1029300000F018F90399ADF8140038460095DDE968
:10294000042301F09DFB112000F00CF90346182030
:10295000ADF80C3000F006F9ADF81000172000F0CB
:1029600001F9ADF81400059B2046049A03990095DF
:1029700009AD01F085FB3046072104F0A3FF96E87E
:10298000070085E807002946384601F0BBFB96E8BA
:10299000070085E807002946204601F0B3FB3846CA
:1029A00001F0C6FB20460DB0BDE8F04001F0C0BB11
:1029B0002DE9F04104461520002504F1180704F123
:1029C00098062DED028B8EB09FED1E8A00F0CAF89E
:1029D000034605A8ADF80C30039901F093FC0F20D5
:1029E00000F0C0F803460DF12500ADF81030049951
:1029F00001F088FC0423022205A9384601F090FC6E
:102A000004F1580204F17803C4E926232946384624
:102A100056F8048B01F07EFE01462046019100F03D
:102A2000DBF80023F0EE480A019940461A4601F00F
:102A300077FA25B10EB0BDEC028BBDE8F08101251F
:102A4000E4E700BF6F12033B70B59FED430A8EB001
:102A500004468DED010A009100F082F800992046AD
:102A600000F026F91B2000F07DF8034604F1A006D3
:102A70009DED010AADF8143004F1AC05059930461E
:102A80008DED000A01F062FB1C2000F06BF8ADF840
:102A900018009DED000A2846069901F057FB1A2000
:102AA000C4E92E6500F05EF8034619200025ADF854
:102AB0000C3000F057F803460D2004F51046ADF831
:102AC000103000F04FF8ADF81C0004F13C009DED13
:102AD000000A049A0399079B01F07CFA2046FFF74D
:102AE00011FF2046FFF764FF01231C4A47F612211D
:102AF000099349F218200C9303F1E0630D912044EF
:102B000003F5833307A90A95CDE907350223C6E902
:102B100084520B9303F0B4FE0A23C6F8045230210A
:102B2000C6F80052204684F8703184F86C5100F0E9
:102B300037F8D4F89850204600F04EF8284601F0B7
:102B400031FAD4F89C50204600F046F828460EB0E2
:102B5000BDE8704001F026BA000000000107010640
:102B6000704700BF1F2882B009D8084B03EB400212
:102B700013F81030507843EA002002B07047012368
:102B80000C2043EA002002B0704700BF4C650108EA
:102B9000143001F0A7B900BF143001F09FB900BF95
:102BA00038B500F1140504462DED028B284601F0DE
:102BB00087F9284601F092F92846B0EE408A01F0E4
:102BC0007BF9D0ED007AF8EE677A88EE277ABDECD3
:102BD000028B84ED0E7A38BD90ED0E0A704700BF6F
:102BE000F0B5032399B000270125129306462C4B1C
:102BF00009A81595CDE90E7340F20453ADF84030A5
:102C0000284BCDE91357099301F086FE09A801F07E
:102C10005FFF002835D1244B04AF04460090CDF867
:102C200042301023394604958DF820301F4BCDE9F2
:102C30001650CDE906506846059302F0D7F80823F0
:102C4000009A01A909A8ADF804508DF8064009942E
:102C50000295039300F0E4F800230EA938463024CF
:102C6000049302F08DFE03224FF07E5309A906F172
:102C700014000B93CDE90942049A01F0EBF819B066
:102C8000F0BD40F60132084B169704AFADF8242092
:102C90000998CDF84230179500F082F8DCE700BFC4
:102CA0000402040403030001040604030704010BE7
:102CB0002DE9F04304462DED028B83B0002948D066
:102CC000012140F2011200230091ADF804208DF89B
:102CD0000630304A0126304B271D304904F12908BF
:102CE000626040F20272A36040F60663E16004F1A4
:102CF00025092682A4F8252084F82760A4F8293025
:102D000084F82B6004F0C2F86946054648B304F124
:102D100030008DF8066004F021F8072D34D104F15D
:102D200014052046FFF75CFF284601F0D7F8284637
:102D3000B0EE408A01F0C0F8D0ED007AF8EE677A84
:102D400088EE277A84ED0E7A03B0BDEC028BBDE8E5
:102D5000F08340F2011300918DF80610ADF80430B5
:102D6000B7E704F1300003F0F9FF3946204602F0DE
:102D700087FA484601F0D0FD404601F0CDFD04F150
:102D8000120000F077F9CAE73946204602F078FAD7
:102D9000C5E700BF0508050905070506050A06067B
:102DA00010B584B003460124ADF8040003A8ADF8C3
:102DB0000C30ADF80E4001F0AFFD214603A801F044
:102DC00095FE204603F0FEFE002103A801F08EFED2
:102DD000204603F0F7FE214603A801F087FE04B069
:102DE00010BD00BF10B5C2F3002384B00C46017CB7
:102DF0008DF80D2043EA4402FA2402238DF80C20BA
:102E000003AA009402F088F818B10124204604B007
:102E100010BD04460A2003F0D5FE204604B010BDC4
:102E2000034670B543F8042B044684B007C983E811
:102E30000700A37983B91A210B461E22FA252374B1
:102E40002046ADF80C20022303AA009502F064F896
:102E500028B1012004B070BD1B210B46EDE70A200C
:102E600003F0B0FE4FF4B85200950223ADF80C20E9
:102E7000204603AA217C02F04FF80028E9D10A205D
:102E800003F0A0FE41F2027200950223ADF80C207F
:102E9000204603AA217C02F03FF80028D9D10A205D
:102EA00003F090FE042200950223ADF80C2020468A
:102EB00003AA217C02F030F80028CAD10A2003F0CE
:102EC00081FE062200950223ADF80C20204603AABD
:102ED000217C02F021F80028BBD10A2003F072FE09
:102EE00041F2082200950223ADF80C20204603AAE7
:102EF000217C02F011F80028ABD10A20064603F02D
:102F000061FE0095022303AA217C2046ADF80C60E7
:102F100002F002F800289CD1304603F053FE0095E1
:102F200022790C232046002A8DF80C3003AA4FF09A
:102F3000020314BF622142218DF80D10217C01F0A3
:102F4000EBFF002885D1304603F03CFE2279D4E91E
:102F500002310B43DBB20AB943F0400362790AB194
:102F600043F020030E22FA258DF80D3020460095FF
:102F700002238DF80C2003AA217C01F0CDFF00284C
:102F80007FF467AF0A2003F01DFE10220095022394
:102F9000ADF80C20204603AA217C01F0BDFF0028DB
:102FA0007FF457AF0A2003F00DFE12210095022393
:102FB000ADF80C1003AA217C204601F0ADFF0028DB
:102FC0007FF447AF0A2003F0FDFD012209212046CE
:102FD000FFF708FF003818BF01203BE7F0B51023CA
:102FE00087B0234C012200250126002702A9204694
:102FF0000195CDE902234FF48052CDE904670BF02F
:10300000E5F9642004F090FD02A94FF480522046B7
:10301000CDE9046702261027CDE902670BF0D6F947
:103020000322102302A92046CDE902230023042213
:10303000CDE904234FF480520BF0C8F940F232235B
:10304000042202A9019310232046CDE90223019A0C
:10305000012305924FF4805204930BF0B7F940F628
:10306000060120460BF0D2F9284607B0F0BD00BF9C
:1030700030CE00241C4B00221C494FF0400C30B5D0
:10308000054689B00220596007219A601A6201241E
:10309000DA620A224FF4006EDC6006922022CDE94B
:1030A000000104200821CDE9020103201021CDE90F
:1030B000040108206946C3E904024FF4C072181DD8
:1030C000C3E906C24FF48052C3E909E20BF054F998
:1030D00038B92846FFF782FF003818BF012009B031
:1030E00030BD204609B030BD2CCE002440410052F6
:1030F000614A0021D0B513688EB00A91002B40F0D0
:10310000B9805E4B01214FF683700C2411600221BF
:10311000D3F8D4200026032742F48052C3F8D420E9
:10312000D3F8D42002F480520092009AD3F8E02021
:1031300042F01002C3F8E020D3F8E02002F01002C1
:103140000192019AD3F8E02042F04002C3F8E02057
:10315000D3F8E02002F040020292029AD3F8E02075
:1031600042F00802C3F8E020D3F8E02002F00802A1
:103170000392039AD3F8E02042F48072C3F8E0206F
:10318000D3F8E02002F480720492049AD3F8E0208D
:1031900042F08002C3F8E020D3F8E02002F0800281
:1031A0000592059AD3F8E02042F02002C3F8E0200F
:1031B000D3F8E02002F020020692069AD3F8E0202D
:1031C00042F00402C3F8E020D3F8E0300C9403F09E
:1031D000040307930323079A0B93CDE9080108A979
:1031E000274806F027FB48F23712022308A9254892
:1031F0000C94CDE90823CDE90A6706F01BFB4CF2DD
:103200000372022308A920480C94CDE90823CDE9D4
:103210000A6706F00FFB40F2FF62022308A91B4871
:103220000C94CDE90823CDE90A6706F003FB4FF6BD
:103230000C72022308A916480C94CDE90823CDE9A5
:103240000A6706F0F7FA4FF63F02022308A9114871
:103250000C94CDE90823CDE90A6706F0EBFA2022A9
:10326000022308A90A480C94CDE90A67CDE908238E
:1032700006F0E0FA0EB0D0BD28CE0024004402587B
:103280000010025800180258000C02580020025882
:10329000001C0258001402582DE9F04FDFF810848A
:1032A00006460D46144608F114002DED028B89B038
:1032B00000AF02F05DFCD8F8143073B3D8F81830C2
:1032C000D8F80490002B43690BBF4FF0080A4FF069
:1032D000100A4FF0020B4FF0040BB9F1000F2AD087
:1032E000A200EA46012B02F1070222F00702ADEB31
:1032F000020D6846ADEB020D694600F03F81022BDE
:1033000000F0D680002B6FD02246C847D546243720
:10331000BD46BDEC028BBDE8F08FD8F81830002B0D
:10332000F5D0D8F804904FF0080A4FF0020B43692B
:10333000B9F1000FD4D1FB61D8F80030BB61002B8C
:10334000E5D0D54802F086FC6B46BBF1020F7861F0
:1033500008EE103AFB6900F083816A465146A2EB01
:10336000C40295466200EA46B2FBFBF2AAEBC40037
:1033700085460AEB8200EE46F861ADEB010DF86977
:103380000EEB820CC7F810C0EC46ADEB010D00EB64
:103390008201CCF80400CCF8081001EB82013869F6
:1033A000E946CCF80C1000EB8201CCF800A001EB50
:1033B0008202C9E900E0C9E90212012B00F064832E
:1033C000022B00F06C82002B00F0808162084946DD
:1033D0006046BB69984718EE103A24379D46BD46B3
:1033E000BDEC028BBDE8F08F002C8DD01A46D8EDD5
:1033F0000B6A9FEDB27A8446331D36F922E00CF158
:10340000080C07EE90EA33F922E00232F8EEE77A90
:10341000944267EE877A67EEA67A4CED027A07EE61
:1034200090EAF8EEE77A67EE877A67EEA67A4CEDD7
:10343000017AE2D8F9612246C847984ED8ED046A6D
:103440000020F9692B1D9FED9E7A9FED9E6ADFEDAE
:103450009E5A22E0F4EEC67AF1EE10FAC0F2C88469
:1034600047F6FE72D1ED017A45F8202066EEA77A84
:10347000F4EEC77AF1EE10FA40F2F080F4EEC67A7C
:10348000F1EE10FAC0F2D58447F6FE7243F8202020
:103490000230083184427FF639AFD1ED007A66EE12
:1034A000A77AF4EEC77AF1EE10FAD3D83246D9E70C
:1034B000002C3FF429AFD8ED0B6A84469FED787A53
:1034C0000022331D8E4656F822100CF1080C07EE30
:1034D000901A53F822100232F8EEE77A944267EE1F
:1034E000877A67EEA67A4CED027A07EE901AF8EE2C
:1034F000E77A67EE877A67EEA67A4CED017AE2D832
:1035000071462246C7F81CE0C847664ED8ED046AEB
:103510000020F9692B1D9FED6A7A9FED6A6ADFF83A
:1035200094C120E0F4EEC67AF1EE10FAC0F279848C
:103530003246D1ED017A45F8202066EEA77AF4EE06
:10354000C77AF1EE10FA40F28780F4EEC67AF1EE17
:1035500010FAC0F25E84324643F82020023008316F
:1035600084427FF6D3AED1ED007A66EEA77AF4EE10
:10357000C77AF1EE10FAD5D86246DAE7002C3FF4AC
:10358000C3AED8ED0B6A86469FED477A4FF0000C2C
:10359000331D56F82C200EF1080E82F40002A2F51D
:1035A000000207EE902A53F82C200CF1020CF8EEE2
:1035B000E77A82F400026445A2F5000267EE877A9A
:1035C00067EEA67A4EED027A07EE902AF8EEE77AD9
:1035D00067EE877A67EEA67A4EED017AD9D8F9615F
:1035E0002246C847314ED8ED046A0020F9692B1DE8
:1035F0009FED337A9FED336ADFF8BCC01FE0F4EE35
:10360000C67AF1EE10FAC0F2FC833246D1ED017AAF
:1036100045F8202066EEA77AF4EEC77AF1EE10FAAC
:1036200018D9F4EEC67AF1EE10FAC0F2DA83324617
:1036300043F820200230083184427FF667AED1ED96
:10364000007A66EEA77AF4EEC77AF1EE10FAD6D8D1
:103650006246DBE76246EBE762467DE7324615E706
:10366000A100D6466208073121F00701ADEB010D3C
:10367000EA46ADEB010D6946ADEB0E0D0AEB82009B
:10368000EC46ADEB0E0D01EB8202F861E946CCE9A8
:1036900000A0C9E9001290E67CCE00240280FFFF62
:1036A000000000300082FF7F0000003482FF7F00B6
:1036B00064CE0024007E00807E0080FF0000003881
:1036C00004FF7FBF04FF7F3F00FEFF46002C00F099
:1036D000C982BBF1020FD8F8202000F0FA82796984
:1036E000C7F8049002EB810E5FED0C5A8A00DCF8FB
:1036F00008100EF104007A611A46DCF80C303B61C8
:10370000331DD7F810903D61FD69C7E902CB8C46A7
:10371000834636F92210D8ED0B7A06EE101A33F9EB
:10372000221006EE901A3EF92210B8EEC66A07EE95
:10373000101AF8EEE66A3BF92210B8EEC77A26EEC8
:10374000256A66EEA56A27EE257A26EE276A66EEDA
:10375000A76A27EE277A07EE901A51080232F8EE90
:10376000E77A0AEB8100944280ED006A05EB810064
:1037700067EEA57AC0ED006A0CEB810009EB8101D0
:1037800080ED007A98ED0B7A67EE877AC1ED007ACA
:10379000BFD8D7F804903D69D7E902CB60466208EC
:1037A000BB6949469847D8F828307A69D8ED046A49
:1037B0001A441FED3D7A1FED3D6A2B1D904602F124
:1037C000040A5FED3F5A0022A84ED9E900EC51E00F
:1037D000F4EEC67AF1EE10FAC0F2C78247F6FE7038
:1037E00045F822000CEB0100D0ED007A66EEA77AD6
:1037F000F4EEC77AF1EE10FA4BD9F4EEC67AF1EE98
:1038000010FAC0F2BA8247F6FE70BBF1020F43F81D
:1038100022002BD0D9F808000844D0ED007A66EEDB
:10382000A77AF4EEC77AF1EE10FA36D9F4EEC67A3A
:10383000F1EE10FAC0F2CD8247F6FE7048F8220091
:10384000D9F80C000144D1ED007A66EEA77AF4EEC7
:10385000C77AF1EE10FA1ED9F4EEC67AF1EE10FA3C
:10386000C0F2AF8247F6FE714AF82210023294424B
:103870007FF6B1AD51080EEB81008900D0ED007AE2
:1038800066EEA77AF4EEC77AF1EE10FAA0D83046C9
:10389000A6E73046B9E73146E6E73046CEE7002CEA
:1038A00000F0E081BBF1020FD8F8203000F0E18198
:1038B0007A69DCF8081003EB820EC7F804909300D5
:1038C000DFED6B5A0EF1040000227B61DCF80C3056
:1038D0003B61331DD7F810903D61FD69C7E902CB0C
:1038E0008C46834656F82210D8ED0B7A07EE101A54
:1038F00053F82210B8EEC76A07EE101A5EF82210CD
:10390000F8EEC76A07EE101A26EE256A5BF8221059
:10391000B8EEC77A66EEA56A26EE276A27EE257A04
:1039200066EEA76A27EE277A07EE901A5108023250
:10393000F8EEE77A0AEB8100944280ED006A05EB2D
:10394000810067EEA57AC0ED006A0CEB810009EBFF
:10395000810180ED007A98ED0B7A67EE877AC1EDF0
:10396000007ABFD8D7F804903D69D7E902CB60460A
:103970006208BB6949469847D8F828307A69D8ED7B
:10398000046A1A449FED3E7A9FED3E6A131D9246EB
:10399000DFF8E4C00022FB612B1D364ED9E9008E12
:1039A0004EE0F4EEC67AF1EE10FAC0F2FC81304639
:1039B00045F822000EEB0100D0ED007A66EEA77A02
:1039C000F4EEC77AF1EE10FA49D9F4EEC67AF1EEC8
:1039D00010FAC0F2EF813046BBF1020F43F822002B
:1039E0002AD0D9F808000844D0ED007A66EEA77A0C
:1039F000F4EEC77AF1EE10FA35D9F4EEC67AF1EEAC
:103A000010FAC0F2C98130464AF82200D9F80C00F9
:103A10000144D1ED007A66EEA77AF4EEC77AF1EEB2
:103A200010FA1ED9F4EEC67AF1EE10FAC0F2AD81AA
:103A30003146F86940F82210023294427FF6CBAC4E
:103A4000510808EB81008900D0ED007A66EEA77A74
:103A5000F4EEC77AF1EE10FAA3D86046A8E7604604
:103A6000BAE76146E5E76046CEE700BF0280FFFFA8
:103A7000000000300082FF7F007E008000000034E4
:103A800004FF7FBF04FF7F3F002C00F0EB807A69CA
:103A90000021D8F82030C7F8109003EB820ED7F839
:103AA0001C909300FD610EF104021FED0C6A7B6116
:103AB000331D154656F821204808D8ED0B6ABBF196
:103AC000020F82F40002A2F5000207EE902A53F8DA
:103AD000212082F40002B8EEE77AA2F5000227EE78
:103AE000067A07EE902A0AEB8002F8EEE77A27EED4
:103AF000267A67EE867A82ED007A09EB80024FEA39
:103B0000800067EEA67AC2ED007A27D05EF8212009
:103B100082F40002A2F5000207EE902A55F8212057
:103B200082F40002B8EEE77AA2F5000227EE067AE8
:103B300007EE902ADCF80820F8EEE77A024427EE38
:103B4000267A67EE867A82ED007A98ED0B7ADCF8B9
:103B50000C2067EE877A0244C2ED007A02318C4273
:103B6000A8D8D7F8109060466208BB694946FD693D
:103B70009847D8F828307A69D8ED046A1A441FEDBE
:103B8000407A1FED406A131D9246DFF8C4C200223E
:103B9000FB612B1DAB4ED9E9008E4EE0F4EEC67AE8
:103BA000F1EE10FAC0F2C580304645F822000EEB67
:103BB0000100D0ED007A66EEA77AF4EEC77AF1EE56
:103BC00010FA49D9F4EEC67AF1EE10FAC0F2BF80CD
:103BD0003046BBF1020F43F822002AD0D9F8080082
:103BE0000844D0ED007A66EEA77AF4EEC77AF1EEDB
:103BF00010FA35D9F4EEC67AF1EE10FAC0F2AE80C2
:103C000030464AF82200D9F80C000144D1ED007A80
:103C100066EEA77AF4EEC77AF1EE10FA1ED9F4EE4A
:103C2000C67AF1EE10FAC0F28B803146F86940F89E
:103C30002210023294427FF6CEAB510808EB81008D
:103C40008900D0ED007A66EEA77AF4EEC77AF1EE3D
:103C500010FAA3D86046A8E76046BAE76146E5E7F0
:103C60006046CEE7224649466046BB699847FFF763
:103C7000B2BBC7F810B0002298ED0B6A331DDFED20
:103C8000726AD7F81CB0786956F8221007EE901ABD
:103C900053F82210B8EEE77A07EE901A5108023274
:103CA000F8EEE77A27EE267A0AEB810E94420BEBC8
:103CB000810167EEA67A27EE067A67EE867A8EEDA8
:103CC000007AC1ED007ADFD88300D7F810B07B61AD
:103CD0004DE61A46C7F810B098ED0B6A331DDFEDBC
:103CE0005B6AD7F81CB0786936F9221007EE101A13
:103CF00033F9221007EE901AB8EEC77A5108023253
:103D0000F8EEE77A27EE267A0AEB810E94420BEB67
:103D1000810167EEA67A27EE067A67EE867A8EED47
:103D2000007AC1ED007ADFD88300D7F810B07B614C
:103D300034E5F0EE675AFEEEE45A15EE900A34E7E9
:103D4000F0EE675AFEEEE45A15EE901A6EE7F0EECA
:103D5000675AFEEEE45A15EE900A3AE7F0EE675A1B
:103D6000FEEEE45A15EE900A4BE767EEA57AFDEEFB
:103D7000E77A17EE900A00B232E567EEA57AFDEE1B
:103D8000E77A17EE900A00B23FE5F0EE675AFEEED2
:103D9000E05A15EE901A4CE6F0EE675AFEEEE05A45
:103DA00015EE900A30E6F0EE675AFEEEE05A15EE98
:103DB000900AFDE5F0EE675AFEEEE05A15EE900A25
:103DC0000AE667EEA57AFDEEE77A17EE901A09B2D9
:103DD0004AE567EEA57AFDEEE77A17EE900A00B2A3
:103DE0002CE5F0EE675AFEEEE45A15EE902A1FE439
:103DF00067EEA57AFDEEE77A17EE902A12B2FFF78A
:103E000031BBF0EE675AFEEEE45A15EE902AFFF74A
:103E1000FDBBF0EE675AFEEEE05A15EE902AFFF772
:103E20009BBBF0EE675AFEEEE05A15EE902AFFF7C4
:103E300080BB67EEA57AFDEEE77A17EE902A12B204
:103E4000FFF724BB82FF7F00000000300000003835
:103E50007E0080FF30B5154C154685B0046004F136
:103E6000080C01AB07C98CE80700D4ED047AF5EE25
:103E7000C07A83E80700F1EE10FA14DDF7EE006A6D
:103E800086EEA77A84ED0B7A6DB1204640F8145F78
:103E900001F06EFE064903690020064AE161626294
:103EA000E36005B030BD012005B030BD64CE002414
:103EB000002000300000003000680830704700BF6C
:103EC000B1F5807F03680A4628BF4FF48072B1F5D0
:103ED000807F9A6094BF00200120704700681430F2
:103EE00001F0A6BE30B5046883B008480D46A3684B
:103EF000626AE1699B00009004F1140001F03AFE4F
:103F00000020C4E9000503B030BD00BF99320008AD
:103F1000024B0022C3E90522704700BF64CE002493
:103F2000F6EE006A4FF0000C60EE207A0160B7EE0A
:103F3000007A0021C0F80CC067EEA67A80ED020A74
:103F400080ED047AC0F814C0C7EE276A0276437683
:103F50008176C0ED070AC0ED016A70470268037EF2
:103F6000128807EE902AFBEEC87A1BB1B7EE007AF2
:103F700077EE677AD0ED056A90ED047A77EEE67A0F
:103F8000437E67EE877A0BB1F1EE677A90ED030A14
:103F900090ED017A77EEC07AA7EE270A80ED030A4A
:103FA000704700BF837E80ED020A73B9D0ED077AB7
:103FB00027EE800AF6EE007AB7EE007A20EE270AA6
:103FC000C7EE007AC0ED017A7047DFED017AEFE7C6
:103FD0006F12033B10B584B004460C30ADF80C10E2
:103FE000ADF8082082804FF48072A181ADF80430D2
:103FF000E281628200F090FC04F1100000F08CFC81
:104000009FED060A0199204600F0A0F800224FF625
:10401000FF73A261A38204B010BD00BF00000000C6
:1040200070B5067D04460C30760000F051FD657DCC
:10403000034676B26D0004F110001E436DB2267582
:1040400000F046FD05432046657500F093F8237D9A
:10405000002203F00303A261022B06D0627D02F06E
:104060000302022A00D133B170BD637D9B07FBD1EF
:104070000123A36170BD4FF0FF33A36170BD00BF8A
:1040800030B585B004469FED110A9DF82050ADF87B
:104090000C100399ADF808202A46ADF804308DEDD8
:1040A000000A0DF07DFD9DED000A2A46029904F1FB
:1040B0001C000DF075FD9DED000A2A46019904F1E2
:1040C000380005B0BDE830400DF06ABD00007A440C
:1040D00010B52DED028BF0EE608A0446B0EE418AF9
:1040E0000DF082FD04F11C00B0EE680A0DF07CFDBD
:1040F000B0EE480A04F13800BDEC028BBDE8104078
:104100000DF072BD38B50C46054691ED000A0DF074
:104110006BFD94ED010A05F11C000DF065FD94EDB9
:10412000020A05F13800BDE838400DF05DBD00BF62
:1041300010B504460DF06AFD04F11C000DF066FD9B
:1041400004F13800BDE810400DF060BD012282B0DE
:104150000346C1F3072CADF8041041700021027032
:10416000104483F802C09A80D9709A7102B000F0AE
:10417000D3BB00BF38B5447905468379013064006C
:1041800064B253B100F0A4FCB0FA80F35B0923439E
:10419000DBB27F2B6B7108D038BD00F099FC43B2C5
:1041A0002343DBB27F2B6B71F6D102F009FD07EEE2
:1041B000900AF8EE677AC5ED027A38BD704700BF05
:1041C000012910B506D0022915D051B1BDE8104023
:1041D00007F012BA0A46344834490DF035F8E8B110
:1041E000FEE7334B0A46334C334934481C600DF02C
:1041F0002BF868B1FEE701222C492B480DF024F87A
:1042000000B1FEE72E4928480DF040F8C0B1FEE7A6
:104210002B492A480DF03AF860B1FEE728492248B8
:104220000DF034F800B1FEE726491F480CF0BCFF42
:1042300008B3FEE7244921480CF0B6FFA8B1FEE719
:10424000204919480CF0B0FF00B1FEE716480DF008
:1042500033F8024640B9164B164C174917481C60F4
:104260000CF0F2FF68B1FEE7FEE714480DF024F809
:104270000028ABD0FEE70C480DF01EF80028A5D0B2
:10428000FEE70F490D480DF001F800B1FEE70E49B9
:104290000A480CF089FF00B1FEE708480DF00CF861
:1042A000002893D0FEE700BF30D10024A0010024F5
:1042B000CCD30024BD4100088401002494CE002406
:1042C000080200246401002454010024084691B22D
:1042D00008B502F015FF003818BF012008BD00BF67
:1042E000014806F067BC00BF00130124014806F036
:1042F00061BC00BF00130124014806F05BBC00BF95
:104300000013012482B04FF0000C0323ADF8041019
:10431000BDF8042080F810C00280438002B07047CE
:104320002DE9F04FBE4E00258FB0BE4C037006F154
:1043300040034260074601928846202229463046C3
:10434000C4F85831C4F85461CDE90355CDE9055599
:10435000CDE90755CDE90955CDE90B5510F076FDAE
:104360002022294604F59970C4F82151C4F825513A
:10437000C4F82951C4F82D5110F068FD019B84F850
:10438000385284F820317A68002A5FD02B464146A3
:10439000B64604F5907599464FF0010A03EB0310F9
:1043A000D1F800B0D1F804800133D1F808C0221848
:1043B000CE6844F800B0C2F80480C2F808C0D660E5
:1043C000087C2EF8029B10740A7C05F8012F002A45
:1043D00069D07A68113184F838A29A42DED84FF455
:1043E000802291489DF8043008214FF000084FF0DA
:1043F0000009C4F874310023C4E957020122C4F84B
:10440000643184F87031C4E95A2194F83812C4E94F
:10441000608981B3C4F88821002284F8713184F85E
:1044200078313B78C4E96322A3B301220020012143
:10443000013B84F89421C4E96801082B2CD8DFE8FB
:1044400003F0ABB0B5BABFC4C9CFD6009DF80430F5
:104450000121C4F86421C4F874314FF4802384F836
:104460007021714AC4E9572308230022C4E95A1372
:104470000023C4E960230123002284F87131002362
:1044800084F878310323C4F888313B78C4E9632287
:10449000002BCAD184F89431644803F07DFF0346B1
:1044A00038B1FFBEFEE77A6811319A423FF676AF27
:1044B00095E703A95D48039304F0CCF8054600286E
:1044C00068D1022240F2FF73CDE9082300230422C1
:1044D000CDE90A2394F82031002B00F0D5804FF06D
:1044E000060921E0022B00F08980012B40F0C480F6
:1044F0009AF80130012B00F0C180002B4C4B18BF03
:10450000002306A94948CDE9063903F071FB0028CC
:1045100040F0BF80013594F82031EDB2AB4240F25B
:10452000B380444B53F825902FB207EB071704EBE9
:10453000070A504600F0F0F905EB051323441B7CF5
:10454000042B7DDC022B00F3918000F08D80631939
:10455000002283F81021E35D002BC3D19AF80130CB
:10456000062B00F08580072B00F08A80022B00F0DC
:104570009680032B00F09580002B00F09680012B95
:1045800000F09180042B00F09280052B2A4B18BF7D
:104590000023B6E7FFBEFEE703224023C4E96623FB
:1045A0007AE707226023C4E9662375E70F22802398
:1045B000C4E9662370E71F22A023C4E966236BE7E2
:1045C0003F22C023C4E9662366E77F22E023C4E9D3
:1045D000662361E7FF224FF48073C4E966235BE73B
:1045E00040F2FF124FF49073C4E9662354E740F29F
:1045F000FF324FF4A073C4E966234DE79AF8013007
:10460000042B37D0052B3DD0002B40D0012B42D0BE
:10461000022B42D0032B094B18BF002371E700BFC8
:1046200000400030D8D300240020024034D50024BC
:104630000002B0258C6501080000B84F00209036BC
:1046400003233E1D04EB05084FF0000B264488F8B9
:10465000103130460BF1010B00F05EF998F8103183
:1046600004365B45F5DC76E70123EAE70223E8E759
:10467000104B46E7104B44E7002342E70F4B40E75F
:104680000F4B3EE70F4B3CE70FB0BDE8F08F0E4BF2
:1046900037E7FFBEFEE70D4B33E70D4B31E70D4B20
:1046A0002FE70D4B2DE70D4B2BE70D4B29E70D4B5E
:1046B00027E700BF0800900C1000C0102000F01485
:1046C0008000501D000180210004002A0008302EC7
:1046D000001060320040C03A0080F03E00005247B7
:1046E000000021430000844B38B5094C40F2FF72B2
:1046F0004FF0011104F5AE75284603F059FF94F808
:104700002021D4F854112846BDE8384003F0C4BC39
:10471000D8D30024034B0F29D3F8540198BF00EBE2
:1047200041007047D8D30024214B02689A4200D040
:104730007047204A00232048D2F8D81030B51F4CCB
:1047400041F0200183B0C4F8C001092004F5E075F0
:10475000C4E971034FF48060C2F8D810D2F8D820B1
:104760004FF40061C4E9733094F8380202F020027B
:10477000C4F8D4114FF40051984201922846C4F86D
:10478000D811C4E97833019B14BF00234FF4807320
:10479000C4F8DC3104F084F908B1FFBEFEE704F58B
:1047A000AE73C4F8A851C4F8F83103B030BD00BFEF
:1047B000002002400044025840000240D8D30024A8
:1047C000014804F0E5BC00BF98D5002402682DE93B
:1047D000F84F4B4B9A4201D0BDE8F88F494D95F800
:1047E0003832002BF8D095F82031002B77D00024F8
:1047F00005F10C0905F5997605F59077A04613E0CB
:1048000003F0010117F811BCA9F1080000F06EF9DE
:10481000BBF1010F25D895F82031013409F11109B8
:104820000236A2B293422BD917F8012F002AF4D0F6
:10483000D5F854310021327833F81400D5F85831C6
:1048400003EB041323F81200338801339BB2338047
:104850005FFA83FA3A789A42D2D88A46A6F800805C
:10486000D0E7CAF34001A9F1040000F03FF9BBF121
:10487000020FCAF38001CED0484600F037F9CAE7EC
:10488000002395F83802204909229842C5F8C8311A
:104890004FF48060C5F8C011C5F8C4214FF4006121
:1048A0004FF40052C5F8CC3108BF4FF48073C5F8FF
:1048B000D821C5E9740100221448C5E97732C5F84A
:1048C000E42104F0EDF808B1FFBEFEE795F82021E1
:1048D000D5F854110E48BDE8F84F03F0DDBB0A4986
:1048E00009224FF48060C5F8C831C5E970124FF451
:1048F00000614FF40052C5E97330C5E97512DAE77B
:1049000000200240D8D300244000024098D5002463
:1049100034D50024704700BF8378022B30B504469D
:104920008FB037D0032B33D0012B31D000230A9323
:10493000E378012B2AD0022B28D000230B930023ED
:1049400020460C9302F0CEFF0546204602F0D2FF2F
:1049500023780990082B13D8DFE803F01F3245585D
:104960006B7E91A40500594BD3F8E02042F480728D
:10497000C3F8E020D3F8E03003F480730893089B79
:1049800009A9284604F056FF0FB030BD0B93D6E7B7
:104990000A93CDE711230A93CAE74C4B09A928468D
:1049A000D3F8E02042F00102C3F8E020D3F8E03071
:1049B00003F001030093009B04F03CFF0FB030BDF7
:1049C000424B09A92846D3F8E02042F00202C3F87E
:1049D000E020D3F8E03003F002030193019B04F0E0
:1049E00029FF0FB030BD394B09A92846D3F8E02084
:1049F00042F00402C3F8E020D3F8E03003F00403EF
:104A00000293029B04F016FF0FB030BD2F4B09A993
:104A10002846D3F8E02042F00802C3F8E020D3F89B
:104A2000E03003F008030393039B04F003FF0FB08F
:104A300030BD264B09A92846D3F8E02042F01002E9
:104A4000C3F8E020D3F8E03003F010030493049B94
:104A500004F0F0FE0FB030BD1C4B09A92846D3F876
:104A6000E02042F02002C3F8E020D3F8E03003F069
:104A700020030593059B04F0DDFE0FB030BD134B02
:104A800009A92846D3F8E02042F04002C3F8E0200C
:104A9000D3F8E03003F040030693069B04F0CAFE0F
:104AA0000FB030BD094B09A92846D3F8E02042F0E9
:104AB0008002C3F8E020D3F8E03003F080030793CE
:104AC000079B04F0B7FE0FB030BD00BF0044025892
:104AD00038B5054602F006FF0446284602F00AFFF4
:104AE00001462046BDE8384005F0ACB870B5064632
:104AF0000D4602F0F7FE0446304602F0FBFE2A1E89
:104B00000146204618BF0122BDE8704005F0A0B85C
:104B10000023122270B586B0CDE902230493036806
:104B2000032B01D804230593061D841D304602F093
:104B3000D9FE0546304602F0DDFE034601A92846AF
:104B4000019304F077FE204602F0CCFE0346204697
:104B50001C4602F0CFFE01A903462046019304F053
:104B600069FE06B070BD00BF634A0368934210B58A
:104B70008CB028D0614A934258D0614A934200F0E9
:104B80009480604A934201D00CB010BD5E4C5F48E7
:104B9000D4F8E03043F00203C4F8E030D4F8E03059
:104BA00003F002030A930A9BFFF7B2FFD4F8F43034
:104BB00043F08003C4F8F430D4F8F43003F08003F9
:104BC0000B930B9BE0E7504C5148D4F8E03043F096
:104BD0000203C4F8E030D4F8E03003F0020301939C
:104BE000019BFFF795FFD4F8E83000221F2043F423
:104BF00000131146C4F8E830D4F8E83003F4001389
:104C00000293029BD4F8D83043F00103C4F8D830A3
:104C1000D4F8D83003F001030393039B03F08EFD17
:104C20001F200CB0BDE8104003F0C6BD364C39481B
:104C3000D4F8E03043F08003C4F8E030D4F8E0303A
:104C400003F080030493049BD4F8E03043F00203A4
:104C5000C4F8E030D4F8E03003F002030593059B7C
:104C6000FFF756FFD4F8E8300022212043F48003F8
:104C70001146C4F8E830D4F8E83003F48003069312
:104C8000069BD4F8D83043F00103C4F8D830D4F8E8
:104C9000D83003F001030793079B03F04FFD212059
:104CA0000CB0BDE8104003F087BD1B48FFF730FF94
:104CB000154B00224820D3F8E840114644F4000484
:104CC000C3F8E840D3F8E84004F400040894089CD2
:104CD000D3F8D84044F00104C3F8D840D3F8D83012
:104CE00003F001030993099B03F028FD48200CB051
:104CF000BDE8104003F060BD005400400058004083
:104D0000005C0040001C005800440258A0D8002459
:104D100018D60024F0D60024C8D700242DE9F0438B
:104D20001A4B87B000254FF010099E46EC46184BF1
:104D3000FF22E04667461A700EF118060EF13004A5
:104D4000CDE90055CDE90255ADF80090BCE80F0063
:104D5000CDE90455AEE80F009CE803000095ADF8DE
:104D600000908EE80300B8E80F000FC69CE803002F
:104D70000095ADF8009086E803000FCF0FC49CE8C3
:104D8000030084E8030007B0BDE8F08310000024AE
:104D900014D6002410B5EFF3108472B6084B1A78BD
:104DA000120602D504B962B610BD1B78D822054898
:104DB0005BB202FB0300143004F0EAF9F2E700BF33
:104DC00014D6002418D60024014805F0D9BD00BF30
:104DD000A4D60024014805F0D3BD00BF7CD7002431
:104DE000014805F0CDBD00BF54D800242DE9F043A3
:104DF0000F68D8243F4D85B007FB04F4032F05EB63
:104E00000403036040DCCB680E46012B3CD84DD038
:104E10004FF0D808B646DFF8FC9008FB0758BEE80C
:104E20000F00C446ACE80F00DEF800300DF1100EA4
:104E3000CCF80030D8F808C099E80F000EE90F0050
:104E40000EEB8703BCF1010F53F8103CC8F88C300F
:104E500031D0BCF1020F42D0BCF1000F35D0317C13
:104E60008C34D823002201202C4403FB0753490033
:104E7000C3E92602C3F894102046C3E92822C3E9F7
:104E80002A2205F06FFB18B1012005B0BDE8F083C0
:104E90000146204605F080FD0028F5D10146204658
:104EA00005F0A4FD003818BF0120EEE70B7C103B95
:104EB000672BADD9E8E701F0E7FF0F4B98420CBF35
:104EC0000E4B0F4BC8F89030C9E701F0DDFF0A4BDD
:104ED00098420CBF0B4B0C4BC8F89030BFE701F069
:104EE000D3FF054B98420CBF084B094BC8F89030D4
:104EF000B5E700BF18D60024000E27072D0FB030ED
:104F00003211D0205F4390608A62E030200BA01005
:104F10001A098010EC6101082DE9F041D0F80080F9
:104F200082B00D4617461E4608F18C04204605F057
:104F30002FFD2028FAD1D8F80C3073B96D00204627
:104F4000089C33463A46A9B2009405F061FB00384C
:104F500018BF012002B0BDE8F081089B32463946F7
:104F6000204605F029FCF2E7044B10221A7483F85E
:104F7000E82083F8C02183F89822704718D60024CF
:104F800030B5002395B04FF48071062204460B9390
:104F900006921393CDE90C13CDE90E33CDE911330D
:104FA00001F074FF07282BD004F1100541F288327C
:104FB00006A9284606F06CFC28B10123184684F89F
:104FC0005C3015B030BD0222022306A92846CDE987
:104FD000002310220123CDE9022300224FF4800395
:104FE000CDE9042305224FF0807306926A460F93A1
:104FF00041F2883306F0B8FD0028DED115B030BD8F
:105000000323012084F85C3015B030BD000000009F
:1050100070B50023A4B04FF080724FF48075044641
:10502000ADF806300D93CDE910320122CDE90E53D3
:10503000CDE91223CDE91433002943D0F02300F148
:10504000100508AEADF80630C02341F28832314673
:105050002846089306F01CFC28B10123184684F862
:105060005C3024B070BD41F288320DF10601284653
:1050700006F078FC03460028EFD105224FF480713A
:105080001E93284616924FF080721B9321931F9215
:1050900002AA9FED1F7BCDE91C13CDE922338DEDD4
:1050A000027B9FED1D7B41F2883316A98DED047BB9
:1050B0009FED1B7B8DED067B06F056FD0028CCD1C5
:1050C00024B070BD00F1100508AE612341F28832B2
:1050D00031462846089306F0DBFB0028BDD141F29B
:1050E00088320DF10601284606F0BAFC0028B4D13A
:1050F000BDF80630204623F0780343F04003ADF8B6
:105100000630FFF73DFF00289ED0A6E7AFF30080F2
:10511000000000000100000010000000010000007D
:1051200000000000000040002DE9F04F00234FF484
:10513000807501264FF0807804462DED028BABB0D0
:105140008DF8073013932193299314950E96CDF87B
:105150005C80CDE91533CDE91863CDE91A33CDE98B
:105160002253CDE92433CDE9273306231C9301F0E4
:105170008DFE072808D004F1100741F288321CA9DF
:10518000384606F085FB40B10123184684F85C30B0
:105190002BB0BDEC028BBDE8F08F4FF0020A4FF050
:1051A000020B4FF0050941F2883308AA1CA93846C2
:1051B000CDF89480CDF870909FED2D8BCDE908ABA4
:1051C0004FF0000A4FF4800B8DED0A8BCDE90CAB4C
:1051D00006F0CAFC0028D7D141F2883238460EA921
:1051E00006F056FB0028CFD1402341F288320DF162
:1051F000070138468DF8073006F0B4FB0028C3D10C
:1052000041F288330EA902AA3846CDF83890CDF87D
:105210005C809FED197B8DED048BCDE906AB8DEDA8
:10522000027B06F0A1FC03460028ADD1CDF87090BA
:105230004FF00109CDF894804FF00008219308AA9F
:1052400029931CA938462295CDE92333CDE927338C
:1052500041F288338DED0A8BCDE90CABCDE908899D
:1052600006F082FC002893D0304684F85C608FE71B
:10527000100000000100000040000000400000009D
:105280002DE9F043624CA3B00D46046001F0FEFD31
:10529000072800F0A980286823466968AA6807C320
:1052A0001E46AB8926F8043B3046257B677B06F01B
:1052B000D1FAE0B9574B012D4FF00108E0612361AD
:1052C00014BF4FF480134FF40003C4E9058893FA28
:1052D000A3F3B3FA83F34FF48079013BC4F824902D
:1052E000C4E90B003046236206F048FA38B10122C7
:1052F000134684F85C20184623B0BDE8F08366238B
:105300000B90139041F2883206A90693CDE90C90D8
:10531000CDE90E00CDE91100304606F0B9FA0028BB
:10532000E5D1992341F2883206A93046069306F06A
:10533000AFFA0028DBD105231C9019906A4614931C
:105340004FF08073219014A91D9341F288339FED93
:105350002A7BCDE91A90CDE91F008DED007B9FEDF2
:10536000287B30468DED027B9FED277B8DED047B06
:1053700006F0FAFB0028BAD129462046FFF748FE7E
:105380000028B4D12046FFF7CFFE03460028AED157
:10539000002FB0D1189330460027002606AA14A982
:1053A000CDF86890CDE91F33EB2314934FF440639D
:1053B0001B934FF4005317934FF440431C93A023C7
:1053C0001693062319934FF0805321934FF04073A7
:1053D000CDE906671D9306F03FFC034600288AD0FE
:1053E000434684F85C8086E701230322184684F84C
:1053F0005C2023B0BDE8F083000000000100000045
:10540000100000000100000000000000000040004B
:1054100078D90024005000522DE9F04F8FB0414B55
:105420000024026800AF9A427C63C7E90944C7E9D7
:105430000B4403D03C37BD46BDE8F08F3A4B40F6F5
:1054400009213A48EB46D3F8D42007F11C0607F1AE
:10545000220A4FF0020942F480424FF00308C3F8D9
:10546000D420D3F8D42002F48042BA60BA68D3F8CA
:10547000E02042F04002C3F8E020D3F8E02002F040
:105480004002FA60FA68D3F8E02042F02002C3F844
:10549000E020D3F8E02002F020023A613A69D3F824
:1054A000E02042F01002C3F8E020D3F8E02002F040
:1054B00010027A617A69D3F8E02042F00202C3F860
:1054C000E020D3F8E030F86103F002033984BB61D7
:1054D000174B7B60BB697B6853F8040F7B6002F05D
:1054E00001FA7B680546186802F004FA16F8013BD9
:1054F000786207F124012846C7F830807B63C7E94A
:105500000A9404F097F95645E5D100225C20114633
:1055100003F014F95C2003F04FF93C37DD46BD463B
:10552000BDE8F08F00500052004402580A0A0909F1
:10553000D4D90024114B02689A4200D07047104A17
:1055400070B5D2F8D4300F4C23F4804304F1180620
:10555000C2F8D43054F8040F02F0C4F905462068AC
:1055600002F0C8F90146284604F0A4FAB442F1D189
:105570005C20BDE8704003F02DB900BF0050005220
:1055800000440258D4D90024014806F0F1BB00BF02
:1055900088D90024084B1A1D981D03F1080110B486
:1055A0009C1C9A6603F10A02C3E91834C3E91B0183
:1055B0005DF8044B5A67704778D9002438B5036802
:1055C00071B9026A00F1280500F5AC74012A0CBF1C
:1055D000002140218BBB1D4B5722C0F858310DE0F4
:1055E000426A00F1C00500F5E874012A0CBF0021F1
:1055F0004021EBB1164B5A22C0F8D031002320468F
:10560000C4E901214FF480524FF48061636262610A
:105610004FF48042C4E903314FF48073C4E9062398
:105620004FF40033236203F03BFA58B1FFBEFEE7AC
:10563000084B5822C0F8D031E0E7074B5922C0F898
:105640005831DBE7C5E92044A56338BD10000240AE
:105650007000024028000240580002402DE9F0434B
:10566000821D05468BB0031D05F10A010830CDE906
:10567000052305F10C02AB69CDE907010992002B66
:105680003DD0EB69B3FA83F84FEA581801230222A0
:1056900005AE0AAF4FF006090393CDE9012356F892
:1056A000044B2B792278934216D02B68F3B1012B4F
:1056B00002D1F2B10A230493204602F01BF90346FB
:1056C0002046009302F00EF9694604F0B3F8BE429A
:1056D000E5D10BB0BDE8F083697963789942E4D1F4
:1056E000B8F1000FF3D02B68002BE0D1CDF810906B
:1056F000E2E76378022B14BF0A230823DBE74FF0AD
:105700000108C3E7534A0368934230B505468BB09E
:1057100055D02032934252D04F4A934204D0203287
:10572000934201D00BB030BD4C4C4D48D4F8E03022
:1057300043F00103C4F8E030D4F8E03003F0010393
:105740000593059BD4F8E03043F00803C4F8E0303B
:10575000D4F8E03003F008030693069BD4F8E03059
:1057600043F04003C4F8E030D4F8E03003F04003E5
:105770000793079BD4F8F03043F40003C4F8F030EB
:10578000D4F8F03003F400030893089BFFF766FF9A
:10579000D4F8D830296843F001032F4A3048C4F8C0
:1057A000D830891AD4F8D83018BF012103F001038A
:1057B0000993099B0BB0BDE83040FFF7FFBE274CB3
:1057C0002848D4F8E03043F00103C4F8E030D4F8BE
:1057D000E03003F001030093009BD4F8E03043F085
:1057E0001003C4F8E030D4F8E03003F01003019364
:1057F000019BD4F8E03043F04003C4F8E030D4F823
:10580000E03003F040030293029BD4F8F03043F4FD
:105810008003C4F8F030D4F8F03003F4800303932D
:10582000039BFFF71BFFD4F8D830296843F001032E
:10583000084A0C48C4F8D830891AD4F8D83018BFB0
:10584000012103F001030493049B0BB0BDE8304039
:10585000FFF7B4BE04580140045C01400044025804
:105860004CDC0024F0D90024014803F091BC00BFB7
:1058700048DB0024014803F08BBC00BFC0DB0024E0
:10588000014803F085BC00BFA4DD0024014803F0FB
:105890007FBC00BF1CDE00241A4A0368934210B488
:1058A0000BD02032934208D0174A934216D02032B0
:1058B000934213D05DF8044B7047144B0022D3F889
:1058C0005442C3F85822002CF4D0D3F84802D3E94C
:1058D000931223465DF8044B520818470B4B0022E5
:1058E000D3F8B044C3F8B424002CE3D0D3F8AC24EC
:1058F000D3F8A814D3F8A404520823465DF8044B47
:10590000184700BF04580140045C0140F0D900244E
:10591000184A0368934210B40BD02032934208D047
:10592000154A934217D02032934214D05DF8044BAD
:105930007047124BD3E994245208C3F85822002C24
:10594000F4D0D3E99201234601EB820100EB8200FF
:105950005DF8044B1847094BD3F8AC24D3F8B04496
:105960005208C3F8B424002CE0D0D3F8A814D3F81C
:10597000A404E8E704580140045C0140F0D9002485
:105980002DE9F04F0C684FF41776754F87B004FB84
:1059900006F6012C07EB060AC0F800A000F3A08071
:1059A0000D468E464FF00008D44669A3D3E9002384
:1059B00069A1D1E90001CDE9022306ABCAF8508202
:1059C00003EB8403CDE9040153F810BC53F8083C01
:1059D000CAE992880193BEE80F00ACE80F00BEE868
:1059E0000F00ACE80F00019B9EE80300CAF828B046
:1059F000CAF8C0308CE803002B69042B0CD8DFE810
:105A000003F0737D879103004FF41773554A03FB2E
:105A100004739A64C3F8E020AA692B6A002A43D071
:105A2000002B4FF4177308BF022203FB047318BF47
:105A30000322DA6201221A63EA696B6A002A40D102
:105A4000191E4FF4177318BF012103FB0473C3E938
:105A500031126B69022B05D8434A12F80380434A7E
:105A600052F823904FF4177306F128004246494636
:105A700003FB04740023384463646363E365C4F880
:105A8000DC30C4F8CC30C4F8F430C4E90F33C4E9D6
:105A90001533C4E93533C4E93B33022308F00AFA6D
:105AA000002849D0FFBEFEE7191E4FF4177318BF38
:105AB000012103FB0473C3E90B12EA696B6A002A34
:105AC000BED0002B4FF4177308BF022203FB0473F0
:105AD00018BF0322C3F8C4200122C3F8C820B8E7C6
